:020000040800F2
:10000000005000201D290008752700087D270008E2
:10001000852700088D2700089527000800000000AC
:100020000000000000000000000000009D27000804
:10003000A927000800000000B5270008C127000814
:100040006529000865290008652900086529000858
:100050006529000865290008652900086529000848
:100060006529000865290008652900086529000838
:100070006529000865290008652900086529000828
:100080006529000865290008652900086529000818
:100090006529000865290008652900086529000808
:1000A00065290008652900086529000865290008F8
:1000B000CD27000865290008652900086529000882
:1000C00065290008652900086529000865290008D8
:1000D000652900086529000865290008E12700084E
:1000E000F5270008652900086529000800000000C0
:1000F0000000000000000000000000000000000000
:0C01000000000000000000005FF808F1A3
:10010C0010B5054C237833B9044B13B10448AFF345
:10011C0000800123237010BD980000200000000017
:10012C001061000808B5034B1BB103490348AFF33A
:10013C00008008BD000000009C0000201061000839
:10014C0080B483B000AF7860094A7B6852F82330E2
:10015C00012B06D1064A7B68002142F823100123AB
:10016C0000E0002318460C37BD4680BC704700BF2A
:10017C000401002080B582B000AF0121584802F084
:10018C00B7FF03461A46574B1A600221544802F037
:10019C00AFFF03461A46534B5A601021504802F0E9
:1001AC00A7FF03461A464F4B9A6001214E4802F0B6
:1001BC009FFF03461A464B4BDA6000237B6086E0B8
:1001CC004A4A7B6852F82330042B78D801A252F8A3
:1001DC0023F000BFF5010008170200083B020008DD
:1001EC005F02000895020008414A7B68002142F832
:1001FC0023103C4A7B6852F82330002B61D13B4AD8
:10020C007B68012142F823105BE0364A7B6852F888
:10021C002330002B05D1354A7B68032142F823108B
:10022C0052E0324A7B68022142F823104CE02D4AFE
:10023C007B6852F82330002B05D12C4A7B680121B6
:10024C0042F8231040E0294A7B68002142F8231031
:10025C003AE0244A7B6852F82330002B0ED1244A12
:10026C007B68012142F82310224B4FF4FA721A607A
:10027C001E4A7B68042142F8231025E01B4A7B6848
:10028C00012142F823101FE0164A7B6852F82330F4
:10029C00002B05D0154A7B68012142F8231013E08E
:1002AC00144B1B68013B134A1360124B1B68002B49
:1002BC0009D1114A7B68012142F8231003E000BFE9
:1002CC0002E000BF00E000BF7B6801337B607B680D
:1002DC00032B7FF775AF00BF00BF0837BD4680BD4D
:1002EC0000080140B4000020000C01402C0100204B
:1002FC000401002000000020DC00002080B500AFCD
:10030C0001220349034804F0BEFC00BF80BD00BFBE
:10031C00540100202C02002080B400AF024B1B784B
:10032C001846BD4680BC70475801002080B483B08D
:10033C0000AF0346FB71044AFB79137000BF0C3706
:10034C00BD4680BC704700BF5801002080B400AF90
:10035C00024B1B781846BD4680BC704759010020E3
:10036C0080B483B000AF0346FB71044AFB79137071
:10037C0000BF0C37BD4680BC704700BF5901002040
:10038C0080B400AF024B1B781846BD4680BC70474A
:10039C005A01002080B483B000AF0346FB71044ABD
:1003AC00FB79137000BF0C37BD4680BC704700BF93
:1003BC005A01002080B400AF024B1B781846BD4692
:1003CC0080BC70475B01002080B483B000AF034653
:1003DC00FB71044AFB79137000BF0C37BD4680BC1F
:1003EC00704700BF5B01002080B400AF024B1B784C
:1003FC001846BD4680BC70475C01002080B483B0B9
:10040C0000AF0346FB71044AFB79137000BF0C3735
:10041C00BD4680BC704700BF5C01002080B400AFBB
:10042C00024B1B781846BD4680BC70475D0100200E
:10043C0080B483B000AF0346FB71044AFB791370A0
:10044C0000BF0C37BD4680BC704700BF5D0100206B
:10045C0080B400AF024B1B781846BD4680BC704779
:10046C005E01002080B483B000AF0346FB71044AE8
:10047C00FB79137000BF0C37BD4680BC704700BFC2
:10048C005E01002080B400AF024B1B781846BD46BD
:10049C0080BC70475F01002080B483B000AF03467E
:1004AC00FB71044AFB79137000BF0C37BD4680BC4E
:1004BC00704700BF5F01002080B500AFA64B1B68E2
:1004CC00142B00F2788401A252F823F037050008AF
:1004DC0077050008D106000893070008D708000824
:1004EC00FB0700086908000845090008AD09000869
:1004FC00430A0008AB0A0008190B0008F70B0008A8
:10050C00E70C00088F0B00085F0C0008550D000865
:10051C00C30D00086D060008C30D00082D0500086A
:10052C008D4B00221A6000F047BC8C4B1A688C4B28
:10053C0083FB021313441911D317C91A0B461B0161
:10054C005B1A5B00D11ACAB2864B1A70854B1B78AA
:10055C001A46854B9B5C212B07D17F4B01221A60DD
:10056C00824B00221A7000F027BC7C4B1A687C4B23
:10057C0083FB021313441911D317C91A0B461B0121
:10058C005B1A5B00D11ACAB2764B1A70754B1B788A
:10059C001A46754B9B5C212B07D16F4B01221A60BD
:1005AC00724B00221A7000F007BC6E4B1B781A4677
:1005BC006D4B9B5C722B06D1674B02221A606B4B06
:1005CC0000221A70F8E3674B1B781A46664B9B5C4B
:1005DC00792B06D1604B07221A60644B00221A70EB
:1005EC00EAE3604B1B781A465F4B9B5C672B06D18A
:1005FC00594B09221A605D4B00221A70DCE3594BEF
:10060C001B781A46584B9B5C732B06D1524B0E220F
:10061C001A60564B00221A70CEE3524B1B781A46C6
:10062C00514B9B5C6D2B06D14B4B0B221A604F4BE5
:10063C0000221A70C0E34B4B1B781A464A4B9B5C4A
:10064C002A2B06D1444B12221A60484B00221A70F6
:10065C00B2E3414B00221A60444B00221A70ABE308
:10066C003E4B1A683E4B83FB021313441911D317EC
:10067C00C91A0B461B015B1A5B00D11ACAB2394B63
:10068C001A70384B1B781A46374B9B5C212B06D1C2
:10069C00314B01221A60354B00221A708CE3314B1E
:1006AC001B781A46304B9B5C232B07D12B4B1B68BA
:1006BC002F4A13602F4B01221A707DE32B4B002223
:1006CC001A7079E3254B1A68254B83FB02131344EC
:1006DC001911D317C91A0B461B015B1A5B00D11AEF
:1006EC00CAB2204B1A701F4B1B781A461E4B9B5CD0
:1006FC00212B06D1184B01221A601C4B00221A70B8
:10070C005AE3184B1B781A46174B9B5C672B06D188
:10071C00114B06221A60154B00221A704CE3114B38
:10072C001B781A46104B9B5C752B06D10A4B032287
:10073C001A600E4B00221A703EE30A4B1B781A46C5
:10074C00094B9B5C792B17D1034B05221A60074B85
:10075C0000221A7030E300BF04000020600100206A
:10076C008988888856010020080000205701002045
:10077C00640100205F010020A14B00221A60A14BF4
:10078C0000221A7018E3A04B1A68A04B83FB0213CB
:10079C0013441911D317C91A0B461B015B1A5B00C2
:1007AC00D11ACAB29A4B1A70994B1B781A46994BAC
:1007BC009B5C212B06D1924B01221A60914B00229B
:1007CC001A70F9E2924B1B781A46924B9B5C6E2B7B
:1007DC0006D18B4B04221A608A4B00221A70EBE272
:1007EC00874B00221A60874B00221A70E4E2864B7A
:1007FC001A68864B83FB021313441911D317C91AB9
:10080C000B461B015B1A5B00D11ACAB2804B1A70E3
:10081C007F4B1B781A467F4B9B5C212B06D1784B68
:10082C0001221A60774B00221A70C5E2784B1B78B4
:10083C001A46784B9B5C232B09D1714B00221A6012
:10084C00754B01221A706F4B00221A70B4E26C4B7C
:10085C0000221A606B4B00221A70ADE26A4B1A68C8
:10086C006A4B83FB021313441911D317C91A0B4695
:10087C001B015B1A5B00D11ACAB2654B1A70644B30
:10088C001B781A46634B9B5C212B06D15C4B0122D7
:10089C001A605C4B00221A708EE25D4B1B781A4674
:1008AC005C4B9B5C232B09D1554B00221A605B4B94
:1008BC0001221A70534B00221A707DE2504B002219
:1008CC001A60504B00221A7076E24F4B1A684F4B4D
:1008DC0083FB021313441911D317C91A0B461B01BE
:1008EC005B1A5B00D11ACAB2494B1A70484B1B7881
:1008FC001A46484B9B5C212B06D1414B01221A60B6
:10090C00404B00221A7057E2414B1B781A46414B60
:10091C009B5C232B09D13A4B00221A60404B0122DD
:10092C001A70384B00221A7046E2354B00221A60BE
:10093C00344B00221A703FE2334B1A68334B83FB63
:10094C00021313441911D317C91A0B461B015B1A56
:10095C005B00D11ACAB22E4B1A702D4B1B781A465B
:10096C002C4B9B5C212B06D1254B01221A60254B6D
:10097C0000221A7020E2264B1B781A46254B9B5CF2
:10098C00722B06D11E4B08221A601E4B00221A70C5
:10099C0012E21B4B00221A601A4B00221A700BE257
:1009AC00194B1A68194B83FB021313441911D317F3
:1009BC00C91A0B461B015B1A5B00D11ACAB2144B45
:1009CC001A70134B1B781A46124B9B5C212B06D1C9
:1009DC000B4B01221A600B4B00221A70ECE10C4BF2
:1009EC001B781A460B4B9B5C232B1DD1044B00220E
:1009FC001A600C4B01221A70024B00221A70DBE1B8
:100A0C00040000205701002060010020898888889C
:100A1C005601002008000020590100205A01002036
:100A2C00580100205B010020A04B00221A60A04B53
:100A3C0000221A70C0E19F4B1A689F4B83FB021374
:100A4C0013441911D317C91A0B461B015B1A5B000F
:100A5C00D11ACAB2994B1A70984B1B781A46984BFC
:100A6C009B5C212B06D1914B01221A60904B0022EA
:100A7C001A70A1E1914B1B781A46914B9B5C722B1F
:100A8C0006D18A4B0A221A60894B00221A7093E114
:100A9C00864B00221A60864B00221A708CE1854B23
:100AAC001A68854B83FB021313441911D317C91A07
:100ABC000B461B015B1A5B00D11ACAB27F4B1A7032
:100ACC007E4B1B781A467E4B9B5C212B06D1774BB9
:100ADC0001221A60764B00221A706DE1774B1B785D
:100AEC001A46774B9B5C232B09D1704B00221A6062
:100AFC00744B01221A706E4B00221A705CE16B4B26
:100B0C0000221A606A4B00221A7055E1694B1A6870
:100B1C00694B83FB021313441911D317C91A0B46E3
:100B2C001B015B1A5B00D11ACAB2644B1A70634B7F
:100B3C001B781A46624B9B5C212B06D15B4B012226
:100B4C001A605B4B00221A7036E15C4B1B781A461C
:100B5C005B4B9B5C612B0DD1544B0C221A604FF4F8
:100B6C007A7301224E21584804F002F8504B0022AF
:100B7C001A7021E14D4B00221A604D4B00221A7065
:100B8C001AE14C4B1A684C4B83FB0213134419119A
:100B9C00D317C91A0B461B015B1A5B00D11ACAB2D8
:100BAC00464B1A70454B1B781A46454B9B5C212BC8
:100BBC0006D13E4B01221A603D4B00221A70FBE01D
:100BCC003E4B1B781A463E4B9B5C652B06D1374B34
:100BDC000F221A60364B00221A70EDE0334B0022C4
:100BEC001A60334B00221A70E6E0324B1A68324B13
:100BFC0083FB021313441911D317C91A0B461B019B
:100C0C005B1A5B00D11ACAB22C4B1A702B4B1B7897
:100C1C001A462B4B9B5C212B06D1244B01221A60CC
:100C2C00234B00221A70C7E0244B1B781A46244B26
:100C3C009B5C6E2B06D11D4B0D221A601C4B0022A7
:100C4C001A70B9E0194B00221A60194B00221A7065
:100C5C00B2E0184B1A68184B83FB0213134419119A
:100C6C00D317C91A0B461B015B1A5B00D11ACAB207
:100C7C00124B1A70114B1B781A46114B9B5C212B93
:100C8C0006D10A4B01221A60094B00221A7093E01C
:100C9C000A4B1B781A460A4B9B5C742B16D1034BE0
:100CAC0010221A60024B00221A7085E0040000200A
:100CBC005701002060010020898888885601002097
:100CCC00080000205C0100202C020020414B002277
:100CDC001A60414B00221A706EE0404B1A68404B70
:100CEC0083FB021313441911D317C91A0B461B01AA
:100CFC005B1A5B00D11ACAB23A4B1A70394B1B788B
:100D0C001A46394B9B5C212B06D1324B01221A60BF
:100D1C00314B00221A704FE0324B1B781A46324B83
:100D2C009B5C232B09D12B4B00221A602F4B0122E9
:100D3C001A70294B00221A703EE0264B00221A60D2
:100D4C00254B00221A7037E0244B1A68244B83FB86
:100D5C00021313441911D317C91A0B461B015B1A42
:100D6C005B00D11ACAB21F4B1A701E4B1B781A4665
:100D7C001D4B9B5C212B06D1164B01221A60164B86
:100D8C0000221A7018E0174B1B781A46164B9B5C06
:100D9C00232B09D10F4B00221A60154B01221A701C
:100DAC000D4B00221A7007E00A4B00221A600A4B06
:100DBC0000221A7000E000BF0E4B1B781A46074B3E
:100DCC001B689A4204DD054B1B680133034A136010
:100DDC0000BF80BD040000205701002060010020EE
:100DEC008988888856010020080000205E010020B8
:100DFC005D0100205501002080B582B000AF786005
:100E0C007B681B68114A93421CD1114B1A78531CF6
:100E1C00D9B20F4B19700F4BA3FB021319090B46D8
:100E2C001B015B1A5B00D31ADBB21A460A4B19780A
:100E3C000A4B99540A4B01221A700122064909489F
:100E4C0003F021FF00BF0837BD4680BD00480040BD
:100E5C005501002089888888540100200800002052
:100E6C00570100202C02002080B500AF6E4B1B6890
:100E7C00002B0DD06D4B1B68032B09DC6B4B1B68D7
:100E8C0005336A4A1360684B00221A6000F053FB6A
:100E9C00664B1B68042B00F2BB8001A252F823F0B6
:100EAC00FB0E0008370F0008E30F00088D0F000839
:100EBC00C10E00085D4B00221A605D4B1B684FF49D
:100ECC007A7202FB03F31946012001F0D1FC594B55
:100EDC001B684FF47A7202FB03F31946022001F0EF
:100EEC00C7FC4FF47A71032001F0C2FC99E000F0CA
:100EFC00DDFE514B9B68012B40F08C804B4B01224B
:100F0C001A604E4B1B684FF47A7202FB03F31946BE
:100F1C00022001F0ADFC494B1B68494A13604FF4A9
:100F2C007A71032001F0A4FC74E000F089FE424BBE
:100F3C009B68012B70D13D4B02221A603D4B1B6804
:100F4C004FF47A7202FB03F31946012001F090FC76
:100F5C00374B1B684FF47A7202FB03F319460220DD
:100F6C0001F086FC334B1B68364A1360304B1B6810
:100F7C00354A13604FF47A71032001F079FC4BE091
:100F8C0000F0CAFE2C4B5B68012B47D1274B00228B
:100F9C001A60274B1B684FF47A7202FB03F3194655
:100FAC00012001F065FC234B1B684FF47A7202FBA5
:100FBC0003F31946022001F05BFC1D4B1B68224A0F
:100FCC0013601C4B1B681F4A13604FF47A7103208B
:100FDC0001F04EFC22E000F0D5FE174B5B68012BB4
:100FEC001ED1124B03221A60144B1B684FF47A72F9
:100FFC0002FB03F31946012001F03AFC0F4B1B686E
:10100C000F4A13604FF47A71032001F031FC07E0B2
:10101C0000BF06E000BF04E000BF02E000BF00E03C
:10102C0000BF00BF80BD00BF0401002028000020CD
:10103C003000002038000020A002002034000020E6
:10104C007C010020780100207401002080B500AFE5
:10105C002F4B1B68012B0FD12E4B1B68042B0BDD68
:10106C002C4B1B68082B07DC2A4B0C221A60284BD4
:10107C0000221A6000F05FFA264B1B68053B032B1D
:10108C003AD801A252F823F0A5100008BD100008B0
:10109C00D5100008ED10000800F008FE0120FFF745
:1010AC004FF80346002B29D01A4B06221A6025E074
:1010BC0000F0C6FD0120FFF743F80346002B1FD0BC
:1010CC00144B07221A601BE000F05CFE0120FFF7B6
:1010DC0037F80346002B15D00E4B08221A6011E08E
:1010EC0000F01AFE0120FFF72BF80346002B0BD063
:1010FC00084B05221A6007E000BF06E000BF04E0C1
:10110C0000BF02E000BF00E000BF00BF80BD00BF19
:10111C00040100202800002080B500AFA74B1B68FD
:10112C00C92B00F04081C92B00F33F810C2B11DC43
:10113C00092BC0F23A81093B032B00F2368101A244
:10114C0052F823F0A3110008E11200084512000820
:10115C0069110008C82B00F0088126E1984B002289
:10116C001A60984B00221A60974B00221A60934B1E
:10117C0009221A604FF4FA71042001F079FB00F097
:10118C006DFE00F035FE0021012000F0DBF98F48E8
:10119C0000F0BCF910E10020FEF7D2FF0346002B53
:1011AC0009D0864B0B221A6000F058FE00F08CFE22
:1011BC00874B01221A600120FEF7C2FF0346002B69
:1011CC0010D07F4B1B6801337D4A13607C4B1A682F
:1011DC00804B1B681344632B04DD7E4B1B685B4206
:1011EC00774A13600220FEF7ABFF0346002B09D0B1
:1011FC00784B1A68724B1B681344764A1360704B19
:10120C0000221A60744B1B69012B40F0D080704B8C
:10121C001B68012B05D100F021FE6D4B00221A60DA
:10122C0004E000F0E5FD6A4B01221A604FF4FA71FC
:10123C00042001F01DFBBAE00020FEF781FF0346FD
:10124C00002B06D05D4B0A221A6000F007FE00F05E
:10125C0071FE0120FEF774FF0346002B10D0594B92
:10126C001B680133574A1360564B1A685B4B1B685B
:10127C001344632B04DD594B1B685B42514A1360CA
:10128C000220FEF75DFF0346002B09D0534B1A6872
:10129C004C4B1B681344514A13604A4B00221A6092
:1012AC004D4B1B69012B40F08480494B1B68012B73
:1012BC0005D100F0D3FD464B00221A6004E000F08B
:1012CC0003FE434B01221A604FF4FA71042001F023
:1012DC00CFFA6EE00020FEF733FF0346002B04D05C
:1012EC0000F0BCFD354B04221A600120FEF728FFEC
:1012FC000346002B10D0344B1B680133324A136069
:10130C00314B1A68364B1B681344632B04DD344B8A
:10131C001B685B422C4A13600220FEF711FF034648
:10132C00002B09D02E4B1A68274B1B6813442C4AF0
:10133C001360254B00221A60274B1B69012B3AD1F5
:10134C00234B1B68012B05D100F088FD204B00229C
:10135C001A6004E000F0EEFD1D4B01221A604FF400
:10136C00FA71042001F084FA25E000F0E4F805207D
:10137C0001F056FB0021012000F0E4F8194800F0C0
:10138C00C5F80821012000F0DDF8174800F0BEF880
:10139C000321022000F0D6F8144800F0B7F8074BF0
:1013AC00C9221A6008E000BF06E000BF04E000BFDD
:1013BC0002E000BF00E000BF00BF80BD280000209D
:1013CC00680100206C0100207001002028610008D9
:1013DC002C00002030000020A0020020380000204B
:1013EC0034000020386100084061000848610008A2
:1013FC0080B586B002AF0346FB71FB7923F00F0377
:10140C00FB73FB791B01BB73FB7B43F00C03DBB25F
:10141C003B72FB7B43F00803DBB27B72BB7B43F07C
:10142C000C03DBB2BB72BB7B43F00803DBB2FB7279
:10143C0007F108026423009304234221034801F0BE
:10144C00EDFF00BF1037BD4680BD00BF90010020EE
:10145C0080B586B002AF0346FB71FB7923F00F0316
:10146C00FB73FB791B01BB73FB7B43F00D03DBB2FE
:10147C003B72FB7B43F00903DBB27B72BB7B43F01B
:10148C000D03DBB2BB72BB7B43F00903DBB2FB7217
:10149C0007F108026423009304234221034801F05E
:1014AC00BDFF00BF1037BD4680BD00BF90010020BE
:1014BC0080B500AF3320FFF79BFF3220FFF798FF7A
:1014CC00322001F0ADFA2820FFF792FF322001F014
:1014DC00A7FA0120FFF78CFF322001F0A1FA0620B9
:1014EC00FFF786FF322001F09BFA0C20FFF780FFFC
:1014FC00322001F095FA0220FFF77AFF322001F03A
:10150C008FFA8020FFF774FF00BF80BD80B582B0DA
:10151C0000AF786006E07B685A1C7A601B7818462E
:10152C00FFF796FF7B681B78002BF4D100BF00BF40
:10153C000837BD4680BD80B500AF0120FFF758FFCE
:10154C0000BF80BD80B584B000AF786039607B6827
:10155C00012B08D17B68DAB23B68DBB21344DBB2F7
:10156C007F33FB7308E03B68DBB24033DBB25BB22A
:10157C0063F07F035BB2FB73FB7B1846FFF738FF0E
:10158C0000BF1037BD4680BD80B500AF9C4B1B68BB
:10159C00002B06D09B4B1B68032B02DCFFF7CBFF09
:1015AC0045E3984B1B68C92B00F0BA82C92B00F39A
:1015BC0033830C2B22DC002BC0F22E830C2B00F27D
:1015CC002B8301A252F823F0511600082F170008A4
:1015DC003D1800081B19000811160008F91900081D
:1015EC00171A0008351A0008531A0008711A000857
:1015FC00951A0008B91A0008251C0008C82B00F021
:10160C000D8309E3804B1B68804A1360804B1B6879
:10161C00804A1360804B1B68804A1360FFF78BFF76
:10162C00052001F0FDF900210120FFF78BFF7C481C
:10163C00FFF76CFF00210220FFF784FF7948FFF7CA
:10164C0065FFF4E208210120FFF77CFF6F4B1B685C
:10165C00754A82FB03129210DB17D31ADBB23033BC
:10166C00DBB21846FFF7F4FE09210120FFF76AFFF1
:10167C00664B1A686C4B83FB02139910D317C91A6B
:10168C000B469B000B445B00D11ACBB23033DBB260
:10169C001846FFF7DDFE08210220FFF753FF5F4BD2
:1016AC001B68614A82FB03129210DB17D31ADBB260
:1016BC003033DBB21846FFF7CBFE09210220FFF7CF
:1016CC0041FF564B1A68584B83FB02139910D317E2
:1016DC00C91A0B469B000B445B00D11ACBB23033BA
:1016EC00DBB21846FFF7B4FE504BDB68012B40F021
:1016FC009782464B1B68002B04DD444B1B68013B57
:10170C00424A1360454B1B68002B04DD434B1B689E
:10171C00013B424A13604FF47A71032001F0A8F8A0
:10172C007EE208210120FFF70DFF384B1B683E4A73
:10173C0082FB03129210DB17D31ADBB23033DBB20D
:10174C001846FFF785FE09210120FFF7FBFE2F4B02
:10175C001A68354B83FB02139910D317C91A0B4621
:10176C009B000B445B00D11ACBB23033DBB2184672
:10177C00FFF76EFE08210220FFF7E4FE254B1B68E5
:10178C00294A82FB03129210DB17D31ADBB23033D7
:10179C00DBB21846FFF75CFE09210220FFF7D2FEF0
:1017AC001C4B1A68204B83FB02139910D317C91AD0
:1017BC000B469B000B445B00D11ACBB23033DBB22F
:1017CC001846FFF745FE194BDB68012B40F02A82C7
:1017DC000E4B1B68002B04DD0C4B1B68013B0B4AAA
:1017EC0013600C4B1B68002B04DD0A4B1B68013B80
:1017FC00084A13604FF47A71032001F039F811E2B2
:10180C00040100202800002030000020740100207A
:10181C00340000207C0100203800002078010020DA
:10182C00506100085C61000867666666A0020020D3
:10183C0008210120FFF786FEA54B1B68A54A82FBF9
:10184C0003129210DB17D31ADBB23033DBB218461B
:10185C00FFF7FEFD09210120FFF774FE9C4B1A686F
:10186C009C4B83FB02139910D317C91A0B469B0090
:10187C000B445B00D11ACBB23033DBB21846FFF706
:10188C00E7FD08210220FFF75DFE934B1B68914A90
:10189C0082FB03129210DB17D31ADBB23033DBB2AC
:1018AC001846FFF7D5FD09210220FFF74BFE8A4BA6
:1018BC001A68884B83FB02139910D317C91A0B466D
:1018CC009B000B445B00D11ACBB23033DBB2184611
:1018DC00FFF7BEFD814BDB68012B40F0A5817E4BF1
:1018EC001B68002B04DD7C4B1B68013B7A4A1360A0
:1018FC00774B1B68002B04DD754B1B68013B744A4E
:10190C0013604FF47A71032000F0B2FF8CE10821D0
:10191C000120FFF717FE724B1B686E4A82FB031205
:10192C009210DB17D31ADBB23033DBB21846FFF759
:10193C008FFD09210120FFF705FE694B1A68654BE5
:10194C0083FB02139910D317C91A0B469B000B4447
:10195C005B00D11ACBB23033DBB21846FFF778FDFF
:10196C0008210220FFF7EEFD5B4B1B68594A82FBF6
:10197C0003129210DB17D31ADBB23033DBB21846EA
:10198C00FFF766FD09210220FFF7DCFD524B1A68B8
:10199C00504B83FB02139910D317C91A0B469B00AB
:1019AC000B445B00D11ACBB23033DBB21846FFF7D5
:1019BC004FFD4A4BDB68012B40F03881464B1B68CE
:1019CC00002B04DD444B1B68013B434A1360444B22
:1019DC001B68002B04DD424B1B68013B404A136023
:1019EC004FF47A71032000F043FF1FE10021012026
:1019FC00FFF7A8FD3B48FFF789FD00210220FFF708
:101A0C00A1FD3948FFF782FD11E100210120FFF70C
:101A1C0099FD3648FFF77AFD00210220FFF792FD71
:101A2C003148FFF773FD02E100210120FFF78AFD29
:101A3C002F48FFF76BFD00210220FFF783FD2A489A
:101A4C00FFF764FDF3E000210120FFF77BFD29483F
:101A5C00FFF75CFD00210220FFF774FD2248FFF721
:101A6C0055FDE4E000210220FFF76CFD224B1A68C3
:101A7C00224B1B6813441A462149224803F092FE5C
:101A8C002048FFF743FDD2E000210220FFF75AFD6A
:101A9C001D4B1A681D4B1B6813441A461C491948E8
:101AAC0003F080FE1748FFF731FDC0E00021022053
:101ABC00FFF748FD174B1A68174B1B6813441A465F
:101ACC001649104803F06EFE0E48FFF71FFDAEE0FE
:101ADC00780100206766666674010020A002002071
:101AEC007C010020686100087C610008906100089E
:101AFC00A4610008B86100083000002068010020D3
:101B0C00CC6100088001002034000020700100200E
:101B1C00E0610008380000206C010020F46100082E
:101B2C0004210120FFF70EFD414B1B68414A82FB4B
:101B3C0003129210DB17D31ADBB23033DBB2184628
:101B4C00FFF786FC05210120FFF7FCFC384B1A68D7
:101B5C00384B83FB02139910D317C91A0B469B0001
:101B6C000B445B00D11ACBB23033DBB21846FFF713
:101B7C006FFC0E210120FFF7E5FC2F4B1B682D4A53
:101B8C0082FB03129210DB17D31ADBB23033DBB2B9
:101B9C001846FFF75DFC0F210120FFF7D3FC264B05
:101BAC001A68244B83FB02139910D317C91A0B46DE
:101BBC009B000B445B00D11ACBB23033DBB218461E
:101BCC00FFF746FC0A210220FFF7BCFC1B4B1B68ED
:101BDC00184A82FB03129210DB17D31ADBB2303394
:101BEC00DBB21846FFF734FC0B210220FFF7AAFCEE
:101BFC00124B1A680F4B83FB02139910D317C91A97
:101C0C000B469B000B445B00D11ACBB23033DBB2DA
:101C1C001846FFF71DFC0AE000BF08E000BF06E015
:101C2C0000BF04E000BF02E000BF00E000BF80BDC9
:101C3C003000002067666666380000203400002003
:101C4C0080B500AF01220821154801F068FA012285
:101C5C002021134801F063FA00221021104801F0F2
:101C6C005EFA01224FF480610D4801F058FA01220E
:101C7C004FF480710B4801F052FA01224FF40071BD
:101C8C00084801F04CFA00228021074801F047FA7D
:101C9C0001224021024801F042FA00BF80BD00BF82
:101CAC00000C0140000801400010014080B500AF5D
:101CBC0001220821154801F032FA01222021134893
:101CCC0001F02DFA01221021104801F028FA00220F
:101CDC004FF480610D4801F022FA01224FF480711B
:101CEC000B4801F01CFA01224FF40071084801F076
:101CFC0016FA01228021074801F011FA0022402136
:101D0C00024801F00CFA00BF80BD00BF000C01407E
:101D1C00000801400010014080B500AF00220821EE
:101D2C00154801F0FCF901222021134801F0F7F9C4
:101D3C0001221021104801F0F2F901224FF48061C8
:101D4C000D4801F0ECF900224FF480710B4801F0C2
:101D5C00E6F901224FF40071084801F0E0F9012284
:101D6C008021074801F0DBF901224021024801F0F3
:101D7C00D6F900BF80BD00BF000C01400008014037
:101D8C000010014080B500AF01220821154801F078
:101D9C00C6F900222021134801F0C1F901221021BB
:101DAC00104801F0BCF901224FF480610D4801F09C
:101DBC00B6F901224FF480710B4801F0B0F9002202
:101DCC004FF40071084801F0AAF90122802107485C
:101DDC0001F0A5F901224021024801F0A0F900BF51
:101DEC0080BD00BF000C0140000801400010014004
:101DFC0080B500AF01220821154801F090F90122AD
:101E0C002021134801F08BF901221021104801F018
:101E1C0086F901224FF480610D4801F080F901220E
:101E2C004FF480710B4801F07AF901224FF40071E4
:101E3C00084801F074F901228021074801F06FF97C
:101E4C0001224021024801F06AF900BF80BD00BFA9
:101E5C00000C0140000801400010014080B500AFAB
:101E6C0000220821154801F05AF9002220211348BC
:101E7C0001F055F900221021104801F050F9002210
:101E8C004FF480610D4801F04AF900224FF4807143
:101E9C000B4801F044F900224FF40071084801F09E
:101EAC003EF900228021074801F039F90022402137
:101EBC00024801F034F900BF80BD00BF000C0140A6
:101ECC00000801400010014080B500AF012208213C
:101EDC00154801F024F900222021134801F01FF9C4
:101EEC0001221021104801F01AF900224FF48061F0
:101EFC000D4801F014F901224FF480710B4801F0E8
:101F0C000EF900224FF40071084801F008F9012283
:101F1C008021074801F003F900224021024801F01A
:101F2C00FEF800BF80BD00BF000C0140000801405E
:101F3C000010014080B500AF00220821154801F0C7
:101F4C00EEF801222021134801F0E9F800221021BB
:101F5C00104801F0E4F801224FF480610D4801F0C3
:101F6C00DEF800224FF480710B4801F0D8F8012202
:101F7C004FF40071084801F0D2F800228021074884
:101F8C0001F0CDF801224021024801F0C8F800BF51
:101F9C0080BD00BF000C0140000801400010014052
:101FAC0080B500AF00F0DAFC00F020F800F004F986
:101FBC0000F08CF800F05CF800F0D4F8FFF778FA39
:101FCC00FEF79CF9084802F0E1F9FEF775FA00F00B
:101FDC00BDF9FFF7D9FAFEF747FFFFF737F8FFF720
:101FEC009BF800BFF1E700BFE401002080B590B082
:101FFC0000AF07F1180328220021184603F0F2FB6A
:10200C003B1D00221A605A609A60DA601A61022342
:10201C00BB610123BB621023FB6202237B630023A1
:10202C00BB634FF46013FB6307F11803184601F010
:10203C004DFD0346002B01D000F082F90F237B608D
:10204C000223BB600023FB604FF480633B610023E1
:10205C007B613B1D0221184601F0BAFF0346002BA1
:10206C0001D000F06DF900BF4037BD4680BD0000C7
:10207C0080B500AF124B134A1A60114B124A5A60CA
:10208C000F4B00229A600E4B0022DA600C4B4FF47F
:10209C0080421A610A4B00225A61094B00229A6154
:1020AC00074B0022DA61064B00221A62044801F049
:1020BC0071F80346002B01D000F042F900BF80BD3F
:1020CC009001002000540040A086010080B586B02D
:1020DC0000AF07F1080300221A605A609A60DA60B8
:1020EC003B4600221A605A601D4B4FF080421A602A
:1020FC001B4B4FF6FF125A60194B00229A60184B7B
:10210C000922DA60164B00221A61154B00229A61E3
:10211C00134802F0EBF80346002B01D000F010F945
:10212C004FF48053BB6007F1080319460C4802F0CA
:10213C006FFA0346002B01D000F002F900233B603C
:10214C0000237B603B461946054802F051FC0346D0
:10215C00002B01D000F0F4F800BF1837BD4680BD4D
:10216C00E401002080B500AF114B124A1A60104BED
:10217C004FF4E1325A600E4B00229A600C4B002255
:10218C00DA600B4B00221A61094B0C225A61084B86
:10219C0000229A61064B0022DA61054802F098FC95
:1021AC000346002B01D000F0CBF800BF80BD00BF70
:1021BC002C0200200048004080B588B000AF07F129
:1021CC00100300221A605A609A60DA60514B9B69C6
:1021DC00504A43F0100393614E4B9B6903F010037C
:1021EC00FB60FB684B4B9B694A4A43F020039361AD
:1021FC00484B9B6903F02003BB60BB68454B9B6954
:10220C00444A43F004039361424B9B6903F004037B
:10221C007B607B683F4B9B693E4A43F008039361AC
:10222C003C4B9B6903F008033B603B68002240F287
:10223C003231394800F073FF002240F279413748BF
:10224C0000F06DFF4FF400533B61354B7B61002375
:10225C00BB6107F110031946324800F0C5FD13238A
:10226C003B6100237B610123BB6107F1100319461D
:10227C00294800F0B9FD4FF448733B6101237B61A1
:10228C000023BB610223FB6107F1100319462248AE
:10229C0000F0AAFD04233B6102237B610323FB6155
:1022AC0007F1100319461C4800F09EFD08233B6102
:1022BC0002237B610023BB6107F11003194616480A
:1022CC0000F092FD4FF48F633B6101237B6100238F
:1022DC00BB610223FB6107F1100319460F4800F0A4
:1022EC0083FD80233B6100237B610023BB6107F1ED
:1022FC00100319460B4800F077FD0022002128201E
:10230C0000F089FC282000F0A2FC00BF2037BD465D
:10231C0080BD00BF0010024000080140000C0140CD
:10232C00000011100010014080B582B000AF786041
:10233C0000F0BEFAFDF71EFF00BF0837BD4680BD9A
:10234C0080B400AF72B600BF00BFFDE780B500AF30
:10235C00FDF7E2FF0346012B06D10020FDF7E6FF57
:10236C00734B04221A60E2E0FDF7F0FF0346012BE9
:10237C0006D10020FDF7F4FF6D4B06221A60D6E063
:10238C00FEF718F80346012B06D10020FEF71CF8C7
:10239C00674B08221A60CAE0FEF726F80346012BA9
:1023AC0006D10020FEF72AF8614B07221A60BEE026
:1023BC00FDF7E6FF0346012B06D10020FDF7EAFFEF
:1023CC005B4B05221A60B2E0FEF728F80346012B9E
:1023DC0006D10020FEF72CF8554BC8221A60A6E057
:1023EC00FEF736F80346012B0DD10020FEF73AF824
:1023FC004F4B1B68032B00F399804D4B1B68053327
:10240C004B4A136092E0FEF73DF80346012B40F077
:10241C008E800020FEF740F8464B1B685A1E464B38
:10242C0083FB021313441911D317C91A0B461B0152
:10243C005B1A5B00D11A414B5B5CA3F130003D4B46
:10244C001B689A1E3C4B83FB021313441911D317C0
:10245C00C91A0B461B015B1A5B00D11A374B5B5C2C
:10246C00A3F1300213469B0013445B000344344A2F
:10247C001360304B1B685A1F2F4B83FB0213134402
:10248C001911D317C91A0B461B015B1A5B00D11A21
:10249C002A4B5B5CA3F13000264B1B689A1F264B22
:1024AC0083FB021313441911D317C91A0B461B01D2
:1024BC005B1A5B00D11A214B5B5CA3F13002134613
:1024CC009B0013445B0003441E4A1360194B1B68AA
:1024DC00A3F10902184B83FB021313441911D317F0
:1024EC00C91A0B461B015B1A5B00D11A134B5B5CC0
:1024FC00A3F130000F4B1B68A3F10A020E4B83FBB8
:10250C00021313441911D317C91A0B461B015B1A7A
:10251C005B00D11A094B5B5CA3F1300213469B00A4
:10252C0013445B000344084A136000E000BF80BD05
:10253C002800002064010020898888880800002079
:10254C0038000020340000203000002080B485B01A
:10255C0000AF154B9B69144A43F001039361124B76
:10256C009B6903F00103BB60BB680F4BDB690E4A30
:10257C0043F08053D3610C4BDB6903F080537B60D9
:10258C007B680A4B5B68FB60FB6823F0E063FB60D5
:10259C00FB6843F00073FB60044AFB68536000BFA8
:1025AC001437BD4680BC704700100240000001404B
:1025BC0080B58AB000AF786007F1140300221A606E
:1025CC005A609A60DA607B681B681D4A934232D16C
:1025DC001C4B9B691B4A43F008039361194B9B6985
:1025EC0003F008033B613B694FF440737B6112239A
:1025FC00BB6103233B6207F114031946124800F038
:10260C00F3FB124B5B687B627B6A43F0E0637B629B
:10261C007B6A43F002037B620C4A7B6A5360094B72
:10262C00DB69084A43F40013D361064BDB6903F4FE
:10263C000013FB60FB6800BF2837BD4680BD00BFA0
:10264C000054004000100240000C0140000001400A
:10265C0080B584B000AF78607B681B68B3F1804FA5
:10266C0013D10C4BDB690B4A43F00103D361094BCB
:10267C00DB6903F00103FB60FB68002200211C20D6
:10268C0000F0C9FA1C2000F0E2FA00BF1037BD467A
:10269C0080BD00BF0010024080B58AB000AF7860EA
:1026AC0007F1140300221A605A609A60DA607B68A2
:1026BC001B68294A93424BD1284BDB69274A43F4C8
:1026CC008023D361254BDB6903F480233B613B6999
:1026DC00224B9B69214A43F0100393611F4B9B696A
:1026EC0003F01003FB60FB684FF480637B610223F3
:1026FC00BB6103233B6207F114031946184800F031
:10270C0073FB4FF400637B610023BB610023FB610F
:10271C0007F114031946124800F066FB114B5B6875
:10272C007B627B6A23F030037B627B6A43F0E0635D
:10273C007B627B6A43F010037B620A4A7B6A5360BC
:10274C0000220021272000F066FA272000F07FFAF3
:10275C0000BF2837BD4680BD004800400010024035
:10276C00001001400000014080B400AF00BFFDE745
:10277C0080B400AF00BFFDE780B400AF00BFFDE741
:10278C0080B400AF00BFFDE780B400AF00BFFDE731
:10279C0080B400AF00BFBD4680BC704780B400AFB2
:1027AC0000BFBD4680BC704780B400AF00BFBD46C3
:1027BC0080BC704780B500AF00F016F900BF80BD3B
:1027CC0080B500AF024801F033FE00BF80BD00BFF2
:1027DC00E401002080B500AF024802F079FA00BF96
:1027EC0080BD00BF2C02002080B500AF4FF400501C
:1027FC0000F0AEFC00BF80BD80B586B000AF786045
:10280C00144A154BD31A7B617B693B61134B1B68D4
:10281C00002B02D1114B124A1A60104B1A687B68BC
:10282C0013443A699A4207D202F0E4FF03460C22A1
:10283C001A604FF0FF3309E0084B1B68FB60074B35
:10284C001A687B681344054A1360FB6818461837EE
:10285C00BD4680BD00500020000400007402002022
:10286C001804002080B400AF00BFBD4680BC704788
:10287C0080B483B000AF786039603B68094A82FB52
:10288C0003129210DB17D21A07497B6841F82320F8
:10289C00064A7B68002142F8231000BF0C37BD4666
:1028AC0080BC70476766666678020020A002002034
:1028BC0080B483B000AF00237B601BE0124A7B68BE
:1028CC0052F823305A1E10497B6841F823200E4AD7
:1028DC007B6852F82330002B09DC0B4A7B68002103
:1028EC0042F82310094A7B68012142F823107B68C7
:1028FC0001337B607B68092BE0DD00BF00BF0C3728
:10290C00BD4680BC704700BF78020020A0020020AA
:10291C00FFF7A8FF0B480C490C4A002302E0D458DF
:10292C00C4500433C4188C42F9D3094A094C00230F
:10293C0001E013600432A242FBD302F061FFFFF707
:10294C002FFB7047000000209800002070620008E8
:10295C009800002014040020FEE7000080B500AFB2
:10296C00084B1B68074A43F010031360032000F068
:10297C0047F9002000F008F8FFF7E8FD002318469F
:10298C0080BD00BF0020024080B582B000AF7860EF
:10299C00124B1A68124B1B7819464FF47A73B3FB1F
:1029AC00F1F3B2FBF3F3184600F05FF90346002B8A
:1029BC0001D001230EE07B680F2B0AD80022796826
:1029CC004FF0FF3000F027F9064A7B6813600023B4
:1029DC0000E0012318460837BD4680BD3C000020AE
:1029EC00440000204000002080B400AF054B1B7851
:1029FC001A46054B1B681344034A136000BFBD46BF
:102A0C0080BC704744000020C802002080B400AF96
:102A1C00024B1B681846BD4680BC7047C80200209C
:102A2C0080B584B000AF7860FFF7F0FFB8607B68CA
:102A3C00FB60FB68B3F1FF3F05D00A4B1B781A46CD
:102A4C00FB681344FB6000BFFFF7E0FF0246BB6866
:102A5C00D31AFA689A42F7D800BF00BF1037BD46A8
:102A6C0080BD00BF4400002080B485B000AF78600A
:102A7C007B6803F00703FB600C4BDB68BB60BA6838
:102A8C004FF6FF031340BB60FB681A02BB6813438D
:102A9C0043F0BF6343F40033BB60044ABB68D360AC
:102AAC0000BF1437BD4680BC704700BF00ED00E08E
:102ABC0080B400AF044BDB681B0A03F00703184615
:102ACC00BD4680BC704700BF00ED00E080B483B011
:102ADC0000AF0346FB7197F90730002B0BDBFB793A
:102AEC0003F01F02064997F907305B09012000FA31
:102AFC0002F241F8232000BF0C37BD4680BC704762
:102B0C0000E100E080B483B000AF03463960FB7194
:102B1C0097F90730002B0ADB3B68DAB20C4997F9BE
:102B2C0007301201D2B20B4483F800230AE03B6851
:102B3C00DAB20849FB7903F00F03043B1201D2B25D
:102B4C000B441A7600BF0C37BD4680BC704700BFE3
:102B5C0000E100E000ED00E080B489B000AFF86067
:102B6C00B9607A60FB6803F00703FB61FB69C3F192
:102B7C000703042B28BF0423BB61FB690433062B1A
:102B8C0002D9FB69033B00E000237B614FF0FF326D
:102B9C00BB6902FA03F3DA43BB681A407B699A40BB
:102BAC004FF0FF317B6901FA03F3D9437B680B408B
:102BBC00134318462437BD4680BC704780B582B09D
:102BCC0000AF78607B68013BB3F1807F01D30123B8
:102BDC000FE00A4A7B68013B53600F214FF0FF3036
:102BEC00FFF790FF054B00229A60044B07221A60F6
:102BFC00002318460837BD4680BD00BF10E000E03A
:102C0C0080B582B000AF78607868FFF72DFF00BF09
:102C1C000837BD4680BD80B586B000AF0346B960AD
:102C2C007A60FB7300237B61FFF742FF78617A685F
:102C3C00B9687869FFF790FF024697F90F30114693
:102C4C001846FFF75FFF00BF1837BD4680BD80B543
:102C5C0082B000AF0346FB7197F907301846FFF7B7
:102C6C0035FF00BF0837BD4680BD80B582B000AFD0
:102C7C0078607868FFF7A2FF034618460837BD4610
:102C8C0080BD80B485B000AF78600023FB737B6897
:102C9C0093F82130DBB2022B08D07B6804229A63B4
:102CAC007B68002283F82020012320E07B681B68CE
:102CBC001A687B681B6822F00E021A607B681B681E
:102CCC001A687B681B6822F001021A607B681A6C18
:102CDC007B68DB6B012101FA02F25A607B680122EE
:102CEC0083F821207B68002283F82020FB7B184688
:102CFC001437BD4680BC704780B584B000AF786097
:102D0C000023FB737B6893F82130DBB2022B05D0D8
:102D1C007B6804229A630123FB7351E07B681B6878
:102D2C001A687B681B6822F00E021A607B681B68AD
:102D3C001A687B681B6822F001021A607B681B68AA
:102D4C00224A934229D07B681B68214A934222D0A5
:102D5C007B681B681F4A93421AD07B681B681E4A0B
:102D6C00934212D07B681B681C4A93420AD07B6842
:102D7C001B681B4A934202D14FF480130EE04FF0B4
:102D8C0080730BE04FF4803308E04FF4805305E080
:102D9C004FF4807302E0102300E00123114A5360CA
:102DAC007B68012283F821207B68002283F8202095
:102DBC007B685B6B002B03D07B685B6B78689847F8
:102DCC00FB7B18461037BD4680BD00BF0800024093
:102DDC001C000240300002404400024058000240F7
:102DEC006C0002400000024080B48BB000AF7860F1
:102DFC00396000237B6200233B6269E101227B6A1C
:102E0C0002FA03F3FB613B681B68FA691340BB6170
:102E1C00BA69FB699A4240F058813B685B689A4AF0
:102E2C0093425ED0984A934275D8984A934258D0B0
:102E3C00964A93426FD8964A934252D0944A934200
:102E4C0069D8944A93424CD0924A934263D8924A9E
:102E5C00934246D0904A93425DD8122B2AD8122B1B
:102E6C0059D801A252F823F0EF2E0008C92E000801
:102E7C00DB2E00081D2F0008232F0008232F00082D
:102E8C00232F0008232F0008232F0008232F0008CE
:102E9C00232F0008232F0008232F0008232F0008BE
:102EAC00232F0008232F0008232F0008D12E000801
:102EBC00E52E0008794A934213D02CE03B68DB687E
:102ECC003B6229E03B68DB6804333B6224E03B68EF
:102EDC00DB6808333B621FE03B68DB680C333B620A
:102EEC001AE03B689B68002B02D104233B6213E081
:102EFC003B689B68012B05D108233B627B68FA6910
:102F0C001A6109E008233B627B68FA695A6103E0A5
:102F1C0000233B6200E000BFBB69FF2B01D87B683C
:102F2C0001E07B6804337B61BB69FF2B02D87B6AB1
:102F3C009B0002E07B6A083B9B003B617B691A6843
:102F4C000F213B6901FA03F3DB431A40396A3B69F1
:102F5C0001FA03F31A437B691A603B685B6803F060
:102F6C008053002B00F0B1804D4B9B694C4A43F0D1
:102F7C00010393614A4B9B6903F00103BB60BB687F
:102F8C00484A7B6A9B08023352F82330FB607B6A09
:102F9C0003F003039B000F2202FA03F3DB43FA68EE
:102FAC001340FB607B68404A934213D07B683F4AD6
:102FBC0093420DD07B683E4A934207D07B683D4AD2
:102FCC00934201D1032306E0042304E0022302E030
:102FDC00012300E000237A6A02F00302920093407E
:102FEC00FA681343FB602F497B6A9B080233FA682B
:102FFC0041F823203B685B6803F48013002B06D058
:10300C002D4B9A682C49BB6913438B6006E02A4B05
:10301C009A68BB69DB43284913408B603B685B684B
:10302C0003F40013002B06D0234BDA682249BB694A
:10303C001343CB6006E0204BDA68BB69DB431E49C7
:10304C001340CB603B685B6803F40033002B06D065
:10305C00194B5A681849BB6913434B6006E0164B71
:10306C005A68BB69DB43144913404B603B685B688F
:10307C0003F48033002B21D00F4B1A680E49BB6927
:10308C0013430B6021E000BF000032100000311030
:10309C00000022100000211000001210000011107E
:1030AC00001002400000014000080140000C0140EB
:1030BC000010014000140140000401400B4B1A6841
:1030CC00BB69DB43094913400B607B6A01337B62AC
:1030DC003B681A687B6A22FA03F3002B7FF48EAEEE
:1030EC0000BF00BF2C37BD4680BC704700040140B8
:1030FC0080B485B000AF78600B467B807B689A68A3
:10310C007B881340002B02D00123FB7301E00023CA
:10311C00FB73FB7B18461437BD4680BC704780B4EC
:10312C0083B000AF78600B467B8013467B707B7856
:10313C00002B03D07A887B681A6103E07B881A0421
:10314C007B681A6100BF0C37BD4680BC704700001D
:10315C0080B582B000AF0346FB80084B5A69FB88F0
:10316C001340002B06D0054AFB885361FB88184698
:10317C0000F006F800BF0837BD4680BD00040140D2
:10318C0080B483B000AF0346FB8000BF0C37BD4654
:10319C0080BC704780B584B000AF78607B68002B32
:1031AC0001D101232BE17B6893F83D30DBB2002B7E
:1031BC0006D17B68002283F83C207868FFF7F8F989
:1031CC007B68242283F83D207B681B681A687B6827
:1031DC001B6822F001021A607B681B681A687B6806
:1031EC001B6842F400421A607B681B681A687B6893
:1031FC001B6822F400421A6001F032F8F8607B6818
:10320C005B68814A934207D8FB68804A934294BF1B
:10321C0001230023DBB206E0FB687D4A934294BF96
:10322C0001230023DBB2002B01D00123E7E0FB6874
:10323C00784AA2FB03239B0CBB607B681B685B6812
:10324C0023F03F017B681B68BA680A435A607B68AD
:10325C001B681B6A23F03F017B685B686A4A9342D8
:10326C0002D8BB68013309E0BB684FF4967202FBCD
:10327C0003F3694AA2FB03239B0901337A681268A2
:10328C000B4313627B681B68DB6923F44F4222F00B
:10329C00FF027B685B685C498B4219D8FB68591E3E
:1032AC007B685B685B00B1FBF3F3591C40F6FC7365
:1032BC000B40002B0AD0FB68591E7B685B685B00D7
:1032CC00B1FBF3F30133C3F30B0351E004234FE0E1
:1032DC007B689B68002B11D1FB68581E7B68596872
:1032EC000B465B000B44B0FBF3F30133C3F30B034E
:1032FC00002B0CBF01230023DBB212E0FB68581E2D
:10330C007B6859680B469B000B4499000B44B0FB3F
:10331C00F3F30133C3F30B03002B0CBF0123002386
:10332C00DBB2002B01D0012322E07B689B68002BD1
:10333C000ED1FB68581E7B6859680B465B000B442A
:10334C00B0FBF3F30133C3F30B0343F400430FE07F
:10335C00FB68581E7B6859680B469B000B44990010
:10336C000B44B0FBF3F30133C3F30B0343F44043BF
:10337C00796809681343CB617B681B681B6823F071
:10338C00C0017B68DA697B681B6A1A437B681B681F
:10339C000A431A607B681B689B6823F4034323F081
:1033AC00FF037A6811697A68D26811437A681268E7
:1033BC000B4393607B681B68DB6823F0FF017B6821
:1033CC005A697B689B691A437B681B680A43DA60FD
:1033DC007B681B681A687B681B6842F001021A60E4
:1033EC007B6800221A647B68202283F83D207B686E
:1033FC0000221A637B68002283F83E2000231846C3
:10340C001037BD4680BD00BFA08601007F841E0022
:10341C00FF083D0083DE1B43D34D621080B588B09E
:10342C0002AFF8607A601A460B467B8113463B81EB
:10343C00FFF7ECFA7861FB6893F83D30DBB2202B98
:10344C0040F0E0807B690093192301227049F868F1
:10345C0000F064F90346002B01D00223D3E0FB6893
:10346C0093F83C30012B01D10223CCE0FB68012204
:10347C0083F83C20FB681B681B6803F00103012BDD
:10348C0007D0FB681B681A68FB681B6842F00102D6
:10349C001A60FB681B681A68FB681B6822F40062E0
:1034AC001A60FB68212283F83D20FB68102283F808
:1034BC003E20FB6800221A64FB687A685A62FB683B
:1034CC003A895A85FB685B8D9AB2FB681A85FB6852
:1034DC00504ADA6279897B693A6AF86800F09CF89C
:1034EC000346002B01D001238DE000233B61FB68D8
:1034FC001B685B693B61FB681B689B693B613B69B3
:10350C0066E07A69396AF86800F022FA0346002B03
:10351C000DD0FB681B6C042B07D1FB681B681A6869
:10352C00FB681B6842F400721A6001236BE0FB68B5
:10353C005B6A1A78FB681B681A61FB685B6A5A1C29
:10354C00FB685A62FB685B8D9BB2013B9AB2FB68CD
:10355C005A85FB681B8D013B9AB2FB681A85FB6888
:10356C001B685B6903F00403042B1BD1FB681B8DE8
:10357C00002B17D0FB685B6A1A78FB681B681A6112
:10358C00FB685B6A5A1CFB685A62FB685B8D9BB2DA
:10359C00013B9AB2FB685A85FB681B8D013B9AB2C2
:1035AC00FB681A857A69396AF86800F019FA0346DB
:1035BC00002B0DD0FB681B6C042B07D1FB681B6820
:1035CC001A68FB681B6842F400721A6001231AE047
:1035DC00FB681B8D002B94D1FB681B681A68FB6879
:1035EC001B6842F400721A60FB68202283F83D20AD
:1035FC00FB68002283F83E20FB68002283F83C2005
:10360C00002300E0022318461837BD4680BD00BFDA
:10361C00020010000000FFFF80B588B002AFF86018
:10362C007A603B600B467B81FB68DB6A7B617B6964
:10363C00082B06D07B69012B03D07B6913F5803FE7
:10364C0008D1FB681B681A68FB681B6842F480721F
:10365C001A600BE0FB681B6B122B07D1FB681B6815
:10366C001A68FB681B6842F480721A603B6800930E
:10367C007B6800224FF00111F86800F04FF8034608
:10368C00002B0DD0FB681B681B6803F48073B3F52B
:10369C00807F03D1FB684FF400721A64032335E07A
:1036AC00FB681B69B3F5804F08D17B89DBB21A46E6
:1036BC00FB681B6802F0FE021A611BE07B89DB11C0
:1036CC00DBB203F00603DBB263F00F03DAB2FB6884
:1036DC001B681A613B687A680E49F86800F098F824
:1036EC000346002B01D0012310E07B89DAB2FB6882
:1036FC001B681A613B687A680749F86800F088F81B
:10370C000346002B01D0012300E000231846183794
:10371C00BD4680BD080001000200010080B584B0E8
:10372C0000AFF860B9603B601346FB7148E03B6842
:10373C00B3F1FF3F44D0FFF769F90246BB69D31AD6
:10374C003A689A4202D33B68002B39D1BB681B0CF8
:10375C00DBB2012B0DD1FB681B685B69DA43BB68DC
:10376C0013409BB2002B0CBF01230023DBB21A4683
:10377C000CE0FB681B689B69DA43BB6813409BB287
:10378C00002B0CBF01230023DBB21A46FB799A42B3
:10379C0016D1FB6800221A63FB68202283F83D20B7
:1037AC00FB68002283F83E20FB681B6C43F0200270
:1037BC00FB681A64FB68002283F83C20012323E099
:1037CC00BB681B0CDBB2012B0DD1FB681B685B6962
:1037DC00DA43BB6813409BB2002B0CBF01230023C0
:1037EC00DBB21A460CE0FB681B689B69DA43BB68CA
:1037FC0013409BB2002B0CBF01230023DBB21A46F3
:10380C00FB799A4293D0002318461037BD4680BDF1
:10381C0080B584B000AFF860B9607A603B6071E04D
:10382C00FB681B685B6903F48063B3F5806F23D17D
:10383C00FB681B681A68FB681B6842F400721A600C
:10384C00FB681B686FF480625A61FB6800221A6384
:10385C00FB68202283F83D20FB68002283F83E2081
:10386C00FB681B6C43F00402FB681A64FB680022C3
:10387C0083F83C20012367E07B68B3F1FF3F41D024
:10388C00FFF7C4F802463B68D31A7A689A4202D30F
:10389C007B68002B36D1BB681B0CDBB2012B0CD127
:1038AC00FB681B685B69DA43BB6813409BB2002B57
:1038BC0014BF01230023DBB20BE0FB681B689B6980
:1038CC00DA43BB6813409BB2002B14BF01230023C7
:1038DC00DBB2002B16D0FB6800221A63FB68202297
:1038EC0083F83D20FB68002283F83E20FB681B6CAC
:1038FC0043F02002FB681A64FB68002283F83C202A
:10390C00012321E0BB681B0CDBB2012B0CD1FB6843
:10391C001B685B69DA43BB6813409BB2002B14BF76
:10392C0001230023DBB20BE0FB681B689B69DA43C5
:10393C00BB6813409BB2002B14BF01230023DBB2E6
:10394C00002B7FF46DAF002318461037BD4680BDA9
:10395C0080B584B000AFF860B9607A6034E0F86884
:10396C0000F086F80346002B01D0012334E0BB683D
:10397C00B3F1FF3F28D0FFF749F802467B68D31A12
:10398C00BA689A4202D3BB68002B1DD1FB681B6836
:10399C005B6903F08003802B16D0FB6800221A634E
:1039AC00FB68202283F83D20FB68002283F83E2030
:1039BC00FB681B6C43F02002FB681A64FB68002256
:1039CC0083F83C20012307E0FB681B685B6903F06C
:1039DC008003802BC3D1002318461037BD4680BD11
:1039EC0080B584B000AFF860B9607A6034E0F868F4
:1039FC0000F03EF80346002B01D0012334E0BB68F5
:103A0C00B3F1FF3F28D0FFF701F802467B68D31AC9
:103A1C00BA689A4202D3BB68002B1DD1FB681B68A5
:103A2C005B6903F00403042B16D0FB6800221A63B5
:103A3C00FB68202283F83D20FB68002283F83E209F
:103A4C00FB681B6C43F02002FB681A64FB680022C5
:103A5C0083F83C20012307E0FB681B685B6903F0DB
:103A6C000403042BC3D1002318461037BD4680BD78
:103A7C0080B483B000AF78607B681B685B6903F42B
:103A8C008063B3F5806F1BD17B681B686FF4806219
:103A9C005A617B6800221A637B68202283F83D20E0
:103AAC007B68002283F83E207B681B6C43F0040289
:103ABC007B681A647B68002283F83C20012300E0B9
:103ACC00002318460C37BD4680BC704780B586B0C5
:103ADC0000AF78607B68002B01D1012372E27B6818
:103AEC001B6803F00103002B00F08780924B5B688E
:103AFC0003F00C03042B0CD08F4B5B6803F00C030E
:103B0C00082B12D18C4B5B6803F48033B3F5803FE8
:103B1C000BD1894B1B6803F40033002B6CD07B68F2
:103B2C005B68002B68D101234CE27B685B68B3F5C2
:103B3C00803F06D1804B1B687F4A43F4803313606F
:103B4C002EE07B685B68002B0CD17B4B1B687A4AA0
:103B5C0023F480331360784B1B68774A23F480235B
:103B6C0013601DE07B685B68B3F5A02F0CD1724B22
:103B7C001B68714A43F4802313606F4B1B686E4AB9
:103B8C0043F4803313600BE06B4B1B686A4A23F4DD
:103B9C0080331360684B1B68674A23F480231360DF
:103BAC007B685B68002B13D0FEF730FF386108E0B0
:103BBC00FEF72CFF02463B69D31A642B01D9032371
:103BCC0000E25D4B1B6803F40033002BF0D014E0D3
:103BDC00FEF71CFF386108E0FEF718FF02463B6950
:103BEC00D31A642B01D90323ECE1534B1B6803F468
:103BFC000033002BF0D100E000BF7B681B6803F0A2
:103C0C000203002B63D04C4B5B6803F00C03002BBE
:103C1C000BD0494B5B6803F00C03082B1CD1464BB3
:103C2C005B6803F48033002B16D1434B1B6803F005
:103C3C000203002B05D07B681B69012B01D00123EB
:103C4C00C0E13D4B1B6823F0F8027B685B69DB002D
:103C5C00394913430B603AE07B681B69002B20D079
:103C6C00364B01221A60FEF7D1FE386108E0FEF7F0
:103C7C00CDFE02463B69D31A022B01D90323A1E1E5
:103C8C002D4B1B6803F00203002BF0D02A4B1B6852
:103C9C0023F0F8027B685B69DB00274913430B6058
:103CAC0015E0264B00221A60FEF7B0FE386108E0E2
:103CBC00FEF7ACFE02463B69D31A022B01D9032353
:103CCC0080E11D4B1B6803F00203002BF0D17B68D5
:103CDC001B6803F00803002B3AD07B689B69002B10
:103CEC0019D0174B01221A60FEF790FE386108E0DC
:103CFC00FEF78CFE02463B69D31A022B01D9032333
:103D0C0060E10D4B5B6A03F00203002BF0D0012045
:103D1C0000F0CEFA1CE00A4B00221A60FEF776FE89
:103D2C0038610FE0FEF772FE02463B69D31A022B94
:103D3C0008D9032346E100BF0010024000004242B4
:103D4C0080044242924B5B6A03F00203002BE9D1E0
:103D5C007B681B6803F00403002B00F0A680002393
:103D6C00FB758B4BDB6903F08053002B0DD1884B1B
:103D7C00DB69874A43F08053D361854BDB6903F0E1
:103D8C008053BB60BB680123FB75824B1B6803F43B
:103D9C008073002B18D17F4B1B687E4A43F48073D1
:103DAC001360FEF733FE386108E0FEF72FFE024683
:103DBC003B69D31A642B01D9032303E1754B1B68B0
:103DCC0003F48073002BF0D07B68DB68012B06D1E9
:103DDC006F4B1B6A6E4A43F0010313622DE07B6844
:103DEC00DB68002B0CD16A4B1B6A694A23F0010378
:103DFC001362674B1B6A664A23F0040313621CE0D0
:103E0C007B68DB68052B0CD1614B1B6A604A43F065
:103E1C00040313625E4B1B6A5D4A43F00103136299
:103E2C000BE05B4B1B6A5A4A23F001031362584B9D
:103E3C001B6A574A23F0040313627B68DB68002B70
:103E4C0015D0FEF7E3FD38610AE0FEF7DFFD024610
:103E5C003B69D31A41F28832934201D90323B1E072
:103E6C004B4B1B6A03F00203002BEED014E0FEF761
:103E7C00CDFD38610AE0FEF7C9FD02463B69D31A55
:103E8C0041F28832934201D903239BE0404B1B6AD9
:103E9C0003F00203002BEED1FB7D012B05D13C4B33
:103EAC00DB693B4A23F08053D3617B68DB69002BD1
:103EBC0000F08780364B5B6803F00C03082B61D055
:103ECC007B68DB69022B46D1334B00221A60FEF76C
:103EDC009DFD386108E0FEF799FD02463B69D31A57
:103EEC00022B01D903236DE0294B1B6803F00073EF
:103EFC00002BF0D17B681B6AB3F5803F08D1244BB3
:103F0C005B6823F400327B689B68214913434B6048
:103F1C001F4B5B6823F474127B68196A7B685B6ABD
:103F2C000B431B4913434B601B4B01221A60FEF7DA
:103F3C006DFD386108E0FEF769FD02463B69D31A56
:103F4C00022B01D903233DE0114B1B6803F00073D6
:103F5C00002BF0D035E0104B00221A60FEF756FD16
:103F6C00386108E0FEF752FD02463B69D31A022B7A
:103F7C0001D9032326E0064B1B6803F00073002BCA
:103F8C00F0D11EE07B68DB69012B07D1012319E01E
:103F9C000010024000700040600042420B4B5B6816
:103FAC00FB60FB6803F480327B681B6A9A4206D183
:103FBC00FB6803F470127B685B6A9A4201D00123A0
:103FCC0000E0002318461837BD4680BD00100240A3
:103FDC0080B584B000AF786039607B68002B01D16C
:103FEC000123D0E06A4B1B6803F007033A689A423E
:103FFC0010D9674B1B6823F0070265493B681343D4
:10400C000B60634B1B6803F007033A689A4201D0BC
:10401C000123B8E07B681B6803F00203002B20D05F
:10402C007B681B6803F00403002B05D0594B5B68BD
:10403C00584A43F4E06353607B681B6803F0080341
:10404C00002B05D0534B5B68524A43F460535360CA
:10405C00504B5B6823F0F0027B689B684D4913431F
:10406C004B607B681B6803F00103002B40D07B681E
:10407C005B68012B07D1474B1B6803F40033002B03
:10408C0015D101237FE07B685B68022B07D1414B84
:10409C001B6803F00073002B09D1012373E03D4B27
:1040AC001B6803F00203002B01D101236BE0394B99
:1040BC005B6823F003027B685B68364913434B60F3
:1040CC00FEF7A4FCF8600AE0FEF7A0FC0246FB68D1
:1040DC00D31A41F28832934201D9032353E02D4B7A
:1040EC005B6803F00C027B685B689B009A42EBD127
:1040FC00274B1B6803F007033A689A4210D2244BF3
:10410C001B6823F0070222493B6813430B60204BCA
:10411C001B6803F007033A689A4201D0012332E08E
:10412C007B681B6803F00403002B08D0194B5B68F9
:10413C0023F4E0627B68DB68164913434B607B68B1
:10414C001B6803F00803002B09D0124B5B6823F4A7
:10415C0060527B681B69DB000E4913434B6000F017
:10416C0021F802460B4B5B681B0903F00F030A494D
:10417C00CB5C22FA03F3094A1360094B1B681846FF
:10418C00FEF702FC002318461037BD4680BD00BF69
:10419C000020024000100240086200083C00002091
:1041AC004000002080B487B000AF0023FB600023E8
:1041BC00BB6000237B6100237B6000233B611E4BB3
:1041CC005B68FB60FB6803F00C03042B02D0082B2C
:1041DC0003D027E0194B3B6127E0FB689B0C03F0F5
:1041EC000F03174AD35C7B60FB6803F48033002B0E
:1041FC0010D0114B5B685B0C03F00103114AD35CCC
:10420C00BB607B680D4A03FB02F2BB68B2FBF3F3A5
:10421C007B6104E07B680C4A02FB03F37B617B69E6
:10422C003B6102E0054B3B6100BF3B6918461C3704
:10423C00BD4680BC704700BF0010024000127A00DF
:10424C00206200083062000800093D0080B400AF15
:10425C00024B1B681846BD4680BC70473C000020D2
:10426C0080B500AFFFF7F2FF0246054B5B681B0AF7
:10427C0003F007030349CB5C22FA03F3184680BD15
:10428C00001002401862000880B500AFFFF7DEFF97
:10429C000246054B5B68DB0A03F007030349CB5C62
:1042AC0022FA03F3184680BD001002401862000881
:1042BC0080B485B000AF78600A4B1B680A4AA2FB39
:1042CC0003235B0A7A6802FB03F3FB6000BFFB6805
:1042DC005A1EFA60002BF9D100BF00BF1437BD463F
:1042EC0080BC70473C000020D34D621080B582B07A
:1042FC0000AF78607B68002B01D1012341E07B6823
:10430C0093F83D30DBB2002B06D17B68002283F89A
:10431C003C207868FEF79CF97B68022283F83D20EC
:10432C007B681A687B6804331946104600F05CFA07
:10433C007B68012283F846207B68012283F83E20AB
:10434C007B68012283F83F207B68012283F84020A0
:10435C007B68012283F841207B68012283F842208C
:10436C007B68012283F843207B68012283F8442078
:10437C007B68012283F845207B68012283F83D206D
:10438C00002318460837BD4680BD000080B485B0B8
:10439C0000AF78607B6893F83D30DBB2012B01D025
:1043AC0001233AE07B68022283F83D207B681B687E
:1043BC00DA687B681B6842F00102DA607B681B6874
:1043CC00184A93420ED07B681B68B3F1804F09D01A
:1043DC007B681B68144A934204D07B681B68134AA1
:1043EC00934211D17B681B689B6803F00703FB6049
:1043FC00FB68062B10D07B681B681A687B681B68EF
:10440C0042F001021A6007E07B681B681A687B683F
:10441C001B6842F001021A60002318461437BD468F
:10442C0080BC7047002C0140000400400008004094
:10443C0080B584B000AF78607B681B68DB68FB607C
:10444C007B681B681B69BB60BB6803F00203002B15
:10445C0020D0FB6803F00203002B1BD07B681B6889
:10446C006FF002021A617B6801221A777B681B6865
:10447C009B6903F00303002B03D0786800F098F9D4
:10448C0005E0786800F08BF9786800F09AF97B68A1
:10449C0000221A77BB6803F00403002B20D0FB68C2
:1044AC0003F00403002B1BD07B681B686FF0040225
:1044BC001A617B6802221A777B681B689B6903F47C
:1044CC004073002B03D0786800F072F905E078682F
:1044DC0000F065F9786800F074F97B6800221A77AF
:1044EC00BB6803F00803002B20D0FB6803F0080323
:1044FC00002B1BD07B681B686FF008021A617B686D
:10450C0004221A777B681B68DB6903F00303002B1A
:10451C0003D0786800F04CF905E0786800F03FF9BA
:10452C00786800F04EF97B6800221A77BB6803F0BC
:10453C001003002B20D0FB6803F01003002B1BD0C2
:10454C007B681B686FF010021A617B6808221A776F
:10455C007B681B68DB6903F44073002B03D078681D
:10456C0000F026F905E0786800F019F9786800F099
:10457C0028F97B6800221A77BB6803F00103002B33
:10458C000CD0FB6803F00103002B07D07B681B6881
:10459C006FF001021A617868FDF7C6FEBB6803F084
:1045AC008003002B0CD0FB6803F08003002B07D09A
:1045BC007B681B686FF080021A61786800F07FFAE4
:1045CC00BB6803F04003002B0CD0FB6803F04003E6
:1045DC00002B07D07B681B686FF040021A6178686B
:1045EC0000F0F8F8BB6803F02003002B0CD0FB683C
:1045FC0003F02003002B07D07B681B686FF02002B0
:10460C001A61786800F052FA00BF1037BD4680BDC1
:10461C0080B584B000AF786039600023FB737B6891
:10462C0093F83C30012B01D10223B4E07B680122CA
:10463C0083F83C207B68022283F83D207B681B6852
:10464C009B68BB60BB6823F07703BB60BB6823F43B
:10465C007F43BB607B681B68BA689A603B681B68C9
:10466C00B3F5005F3ED0B3F5005F00F28780B3F581
:10467C00805F00F08680B3F5805F7FD8702B1AD0F6
:10468C00702B7BD8602B50D0602B77D8502B3CD024
:10469C00502B73D8402B58D0402B6FD8302B64D074
:1046AC00302B6BD8202B60D0202B67D8002B5CD004
:1046BC00102B5AD062E07B6818683B6899683B689D
:1046CC005A683B68DB6800F074F97B681B689B6870
:1046DC00BB60BB6843F07703BB607B681B68BA6840
:1046EC009A604FE07B6818683B6899683B685A6829
:1046FC003B68DB6800F05DF97B681B689A687B6837
:10470C001B6842F480429A603CE07B6818683B6806
:10471C0059683B68DB681A4600F0D4F87B681B6864
:10472C005021184600F02BF92CE07B6818683B6888
:10473C0059683B68DB681A4600F0F2F87B681B6826
:10474C006021184600F01BF91CE07B6818683B6878
:10475C0059683B68DB681A4600F0B4F87B681B6844
:10476C004021184600F00BF90CE07B681A683B6896
:10477C001B681946104600F002F903E00123FB7395
:10478C0000E000BF7B68012283F83D207B6800229B
:10479C0083F83C20FB7B18461037BD4680BD80B4A7
:1047AC0083B000AF786000BF0C37BD4680BC70474B
:1047BC0080B483B000AF786000BF0C37BD4680BCBE
:1047CC00704780B483B000AF786000BF0C37BD4633
:1047DC0080BC704780B483B000AF786000BF0C37EA
:1047EC00BD4680BC7047000080B485B000AF7860D7
:1047FC0039607B681B68FB607B682F4A93420BD047
:10480C007B68B3F1804F07D07B682C4A934203D06E
:10481C007B682B4A934208D1FB6823F07003FB6042
:10482C003B685B68FA681343FB607B68224A9342DF
:10483C000BD07B68B3F1804F07D07B681F4A934243
:10484C0003D07B681E4A934208D1FB6823F4407363
:10485C00FB603B68DB68FA681343FB60FB6823F082
:10486C0080023B685B691343FB607B68FA681A60E3
:10487C003B689A687B68DA623B681A687B689A6264
:10488C007B680D4A934203D13B681A697B681A63B3
:10489C007B6801225A617B681B6903F00103002BC2
:1048AC0005D07B681B6923F001027B681A6100BF8D
:1048BC001437BD4680BC7047002C014000040040FA
:1048CC000008004080B487B000AFF860B9607A602F
:1048DC00FB681B6A7B61FB681B6A23F00102FB68A7
:1048EC001A62FB689B693B613B6923F0F0033B61F7
:1048FC007B681B013A6913433B617B6923F00A0314
:10490C007B617A69BB6813437B61FB683A699A6186
:10491C00FB687A691A6200BF1C37BD4680BC7047C1
:10492C0080B487B000AFF860B9607A60FB681B6A2E
:10493C007B61FB681B6A23F01002FB681A62FB6840
:10494C009B693B613B6923F470433B617B681B03B0
:10495C003A6913433B617B6923F0A0037B61BB681D
:10496C001B017A6913437B61FB683A699A61FB68A6
:10497C007A691A6200BF1C37BD4680BC704780B490
:10498C0085B000AF786039607B689B68FB60FB6822
:10499C0023F07003FB603A68FB68134343F0070392
:1049AC00FB607B68FA689A6000BF1437BD4680BC18
:1049BC00704780B487B000AFF860B9607A603B6034
:1049CC00FB689B687B617B6923F47F437B613B685D
:1049DC001A027B681A43BB6813437A6913437B61E1
:1049EC00FB687A699A6000BF1C37BD4680BC704773
:1049FC0080B485B000AF786039607B6893F83C3048
:104A0C00012B01D1022346E07B68012283F83C2074
:104A1C007B68022283F83D207B681B685B68FB6027
:104A2C007B681B689B68BB60FB6823F07003FB60B2
:104A3C003B681B68FA681343FB607B681B68FA6869
:104A4C005A607B681B68164A93420ED07B681B68C1
:104A5C00B3F1804F09D07B681B68124A934204D093
:104A6C007B681B68104A93420CD1BB6823F080030F
:104A7C00BB603B685B68BA681343BB607B681B68B0
:104A8C00BA689A607B68012283F83D207B6800221B
:104A9C0083F83C20002318461437BD4680BC704771
:104AAC00002C0140000400400008004080B483B09A
:104ABC0000AF786000BF0C37BD4680BC704780B437
:104ACC0083B000AF786000BF0C37BD4680BC704728
:104ADC0080B582B000AF78607B68002B01D10123D8
:104AEC0042E07B6893F84130DBB2002B06D17B6847
:104AFC00002283F840207868FDF7CEFD7B682422E5
:104B0C0083F841207B681B68DA687B681B6822F499
:104B1C000052DA60786800F0B7FD7B681B681A6990
:104B2C007B681B6822F490421A617B681B685A6987
:104B3C007B681B6822F02A025A617B681B68DA6862
:104B4C007B681B6842F40052DA607B6800225A646E
:104B5C007B68202283F841207B68202283F8422046
:104B6C007B6800225A63002318460837BD4680BD77
:104B7C0080B58AB002AFF860B9603B601346FB8029
:104B8C0000237B61FB6893F84130DBB2202B75D19D
:104B9C00BB68002B02D0FB88002B01D101236EE0F7
:104BAC00FB6800225A64FB68212283F84120FDF740
:104BBC002DFF7861FB68FA889A84FB68FA88DA849E
:104BCC00FB689B68B3F5805F08D1FB681B69002B01
:104BDC0004D10023FB61BB68BB6103E0BB68FB61D4
:104BEC000023BB612EE03B6800937B69002280218F
:104BFC00F86800F01CFB0346002B05D0FB68202254
:104C0C0083F8412003233AE0FB69002B0BD1BB69ED
:104C1C001B881A46FB681B68C2F308025A60BB6902
:104C2C000233BB6107E0FB691A78FB681B685A60AA
:104C3C00FB690133FB61FB68DB8C9BB2013B9AB2D5
:104C4C00FB68DA84FB68DB8C9BB2002BCBD13B6816
:104C5C0000937B6900224021F86800F0E8FA0346D3
:104C6C00002B05D0FB68202283F84120032306E0AB
:104C7C00FB68202283F84120002300E00223184621
:104C8C002037BD4680BD80B584B000AFF860B960F8
:104C9C001346FB80FB6893F84230DBB2202B12D119
:104CAC00BB68002B02D0FB88002B01D101230BE049
:104CBC00FB6800221A63FB881A46B968F86800F092
:104CCC000FFB034600E0022318461037BD4680BD9B
:104CDC0080B5BAB000AF78607B681B681B68C7F8FA
:104CEC00E4307B681B68DB68C7F8E0307B681B68C6
:104CFC005B69C7F8DC300023C7F8D8300023C7F84D
:104D0C00D430D7F8E43003F00F03C7F8D830D7F815
:104D1C00D830002B0FD1D7F8E43003F02003002B50
:104D2C0009D0D7F8E03003F02003002B03D07868CB
:104D3C0000F0ECFB5BE2D7F8D830002B00F0DE8003
:104D4C00D7F8DC3003F00103002B06D1D7F8E030A4
:104D5C0003F49073002B00F0D180D7F8E43003F00B
:104D6C000103002B0BD0D7F8E03003F48073002B39
:104D7C0005D07B685B6C43F001027B685A64D7F802
:104D8C00E43003F00403002B0BD0D7F8DC3003F035
:104D9C000103002B05D07B685B6C43F002027B683F
:104DAC005A64D7F8E43003F00203002B0BD0D7F889
:104DBC00DC3003F00103002B05D07B685B6C43F007
:104DCC0004027B685A64D7F8E43003F00803002B24
:104DDC0011D0D7F8E03003F02003002B05D1D7F821
:104DEC00DC3003F00103002B05D07B685B6C43F0D7
:104DFC0008027B685A647B685B6C002B00F0F281C4
:104E0C00D7F8E43003F02003002B08D0D7F8E030BB
:104E1C0003F02003002B02D0786800F077FB7B684E
:104E2C001B685B6903F04003002B14BF01230023B4
:104E3C00DBB2C7F8D4307B685B6C03F00803002B43
:104E4C0003D1D7F8D430002B4FD0786800F081FA1A
:104E5C007B681B685B6903F04003002B41D07B68C7
:104E6C001B681433C7F89C30D7F89C3053E8003FCC
:104E7C00C7F89830D7F8983023F04003C7F8D030F3
:104E8C007B681B681433D7F8D020C7F8A820C7F864
:104E9C00A430D7F8A410D7F8A82041E80023C7F80D
:104EAC00A030D7F8A030002BD9D17B68DB6B002B5E
:104EBC0013D07B68DB6B7E4A5A637B68DB6B1846CE
:104ECC00FDF71AFF0346002B16D07B68DB6B5B6B80
:104EDC007A68D26B104698470EE0786800F093F928
:104EEC000AE0786800F08FF906E0786800F08BF93A
:104EFC007B6800225A6475E100BF73E17B681B6B11
:104F0C00012B40F04F81D7F8E43003F01003002B55
:104F1C0000F04881D7F8E03003F01003002B00F0CC
:104F2C0041810023BB607B681B681B68BB607B688E
:104F3C001B685B68BB60BB687B681B685B6903F0C4
:104F4C004003002B00F0B6807B68DB6B1B685B6852
:104F5C00A7F8BE30B7F8BE30002B00F045817B6857
:104F6C009B8DB7F8BE209A4280F03E817B68B7F8E3
:104F7C00BE20DA857B68DB6B9B69202B00F0888078
:104F8C007B681B680C33C7F88830D7F8883053E837
:104F9C00003FC7F88430D7F8843023F48073C7F807
:104FAC00B8307B681B680C33D7F8B820C7F894204E
:104FBC00C7F89030D7F89010D7F8942041E8002328
:104FCC00C7F88C30D7F88C30002BD9D17B681B6894
:104FDC0014337B677B6F53E8003F3B673B6F23F0D9
:104FEC000103C7F8B4307B681B681433D7F8B420BE
:104FFC00C7F88020FB67F96FD7F8802041E80023C1
:10500C00BB67BB6F002BE1D17B681B6814333B661D
:10501C003B6E53E8003FFB65FB6D23F04003C7F884
:10502C00B0307B681B681433D7F8B020FA66BB66C7
:10503C00B96EFA6E41E800237B667B6E002BE3D1E0
:10504C007B68202283F842207B6800221A637B68ED
:10505C001B680C33FB64FB6C53E8003FBB64BB6CFC
:10506C0023F01003C7F8AC307B681B680C33D7F8FF
:10507C00AC20BA657B65796DBA6D41E800233B6560
:10508C003B6D002BE3D17B68DB6B1846FDF7F9FD1C
:10509C007B6802225A637B689A8D7B68DB8D9BB29E
:1050AC00D31A9BB21946786800F0B6F89CE000BFA2
:1050BC00235400087B689A8D7B68DB8D9BB2D31AD6
:1050CC00A7F8CE307B68DB8D9BB2002B00F08E8076
:1050DC00B7F8CE30002B00F089807B681B680C334E
:1050EC00BB63BB6B53E8003F7B637B6B23F4907318
:1050FC00C7F8C8307B681B680C33D7F8C8207A64B3
:10510C003B64396C7A6C41E80023FB63FB6B002B2E
:10511C00E3D17B681B6814337B627B6A53E8003FE6
:10512C003B623B6A23F00103C7F8C4307B681B6801
:10513C001433D7F8C4203A63FB62F96A3A6B41E83E
:10514C000023BB62BB6A002BE3D17B68202283F86F
:10515C0042207B6800221A637B681B680C333B611E
:10516C003B6953E8003FFB60FB6823F01003C7F872
:10517C00C0307B681B680C33D7F8C020FA61BB6168
:10518C00B969FA6941E800237B617B69002BE3D1A3
:10519C007B6802225A63B7F8CE301946786800F063
:1051AC003BF823E0D7F8E43003F08003002B09D060
:1051BC00D7F8E03003F08003002B03D0786800F0C0
:1051CC003EF914E0D7F8E43003F04003002B0ED086
:1051DC00D7F8E03003F04003002B08D0786800F0DB
:1051EC007DF904E000BF02E000BF00E000BFE8373B
:1051FC00BD4680BD80B483B000AF786000BF0C3773
:10520C00BD4680BC704780B483B000AF786000BFEF
:10521C000C37BD4680BC704780B483B000AF78605B
:10522C000B467B8000BF0C37BD4680BC704780B5F9
:10523C0086B000AFF860B9603B601346FB713BE091
:10524C003B6AB3F1FF3F37D0FDF7E0FB02463B680A
:10525C00D31A3A6A9A4202D33B6A002B01D1032338
:10526C003AE0FB681B68DB6803F00403002B23D0D7
:10527C00BB68802B20D0BB68402B1DD0FB681B6803
:10528C001B6803F00803082B16D100237B61FB6815
:10529C001B681B687B61FB681B685B687B617B69B7
:1052AC00F86800F056F8FB6808225A64FB68002284
:1052BC0083F8402001230FE0FB681B681A68BB6869
:1052CC001340BA689A420CBF01230023DBB21A4682
:1052DC00FB799A42B4D0002318461837BD4680BDDE
:1052EC0080B485B000AFF860B9601346FB80FB68F2
:1052FC00BA689A62FB68FA889A85FB68FA88DA853C
:10530C00FB6800225A64FB68222283F84220FB6867
:10531C001B69002B07D0FB681B68DA68FB681B68ED
:10532C0042F48072DA60FB681B685A69FB681B6880
:10533C0042F001025A61FB681B68DA68FB681B6863
:10534C0042F02002DA60002318461437BD4680BCB8
:10535C00704780B495B000AF78607B681B680C33E5
:10536C007B637B6B53E8003F3B633B6B23F4907395
:10537C00FB647B681B680C33FA6C3A64FB63F96B57
:10538C003A6C41E80023BB63BB6B002BE5D17B6817
:10539C001B6814333B623B6A53E8003FFB61FB69BB
:1053AC0023F00103BB647B681B681433BA6CFA628C
:1053BC00BB62B96AFA6A41E800237B627B6A002B04
:1053CC00E5D17B681B6B012B19D17B681B680C33F7
:1053DC00FB60FB6853E8003FBB60BB6823F0100325
:1053EC007B647B681B680C337A6CBA617B6179696E
:1053FC00BA6941E800233B613B69002BE5D17B682E
:10540C00202283F842207B6800221A6300BF5437A5
:10541C00BD4680BC704780B584B000AF78607B68B7
:10542C005B6AFB60FB680022DA85FB680022DA8489
:10543C00F868FFF7E8FE00BF1037BD4680BD80B4AA
:10544C0085B000AF78607B6893F84130DBB2212BDC
:10545C003ED17B689B68B3F5805F14D17B681B6978
:10546C00002B10D17B681B6AFB60FB681B881A46FB
:10547C007B681B68C2F308025A607B681B6A9A1C23
:10548C007B681A6208E07B681B6A591C7A68116297
:10549C001A787B681B685A607B68DB8C9BB2013B7B
:1054AC009BB27A681946D184002B0FD17B681B689C
:1054BC00DA687B681B6822F08002DA607B681B6804
:1054CC00DA687B681B6842F04002DA60002300E077
:1054DC00022318461437BD4680BC704780B582B095
:1054EC0000AF78607B681B68DA687B681B6822F009
:1054FC004002DA607B68202283F841207868FFF74D
:10550C0079FE002318460837BD4680BD80B58CB0A7
:10551C0000AF78607B6893F84230DBB2222B40F00E
:10552C00AE807B689B68B3F5805F17D17B681B6985
:10553C00002B13D10023FB627B689B6ABB627B68E8
:10554C001B685B689BB2C3F308039AB2BB6A1A80F0
:10555C007B689B6A9A1C7B689A6226E07B689B6AD4
:10556C00FB620023BB627B689B68B3F5805F07D04E
:10557C007B689B68002B0AD17B681B69002B06D1CA
:10558C007B681B685B68DAB2FB6A1A7008E07B68A0
:10559C001B685B68DBB203F07F03DAB2FB6A1A703C
:1055AC007B689B6A5A1C7B689A627B68DB8D9BB21A
:1055BC00013B9BB27A681946D185002B5DD17B6883
:1055CC001B68DA687B681B6822F02002DA607B6853
:1055DC001B68DA687B681B6822F48072DA607B686F
:1055EC001B685A697B681B6822F001025A617B6850
:1055FC00202283F842207B6800225A637B681B6B55
:10560C00012B35D17B6800221A637B681B680C3335
:10561C007B617B6953E8003F3B613B6923F01003DE
:10562C007B627B681B680C337A6A3A62FB61F969AE
:10563C003A6A41E80023BB61BB69002BE5D17B686A
:10564C001B681B6803F01003102B0AD10023FB60AE
:10565C007B681B681B68FB607B681B685B68FB6076
:10566C00FB687B689B8D19467868FFF7D5FD02E0D7
:10567C007868FBF7C1FB002302E0002300E0022363
:10568C0018463037BD4680BD80B584B000AF786019
:10569C007B681B681B6923F440517B68DA687B6864
:1056AC001B680A431A617B689A687B681B691A43FA
:1056BC007B685B691343BB607B681B68DB6823F406
:1056CC00B05323F00C037A681268B9680B43D360AB
:1056DC007B681B685B6923F440717B689A697B6803
:1056EC001B680A435A617B681B682C4A934203D19E
:1056FC00FEF7CAFDF86002E0FEF7B2FDF860FA684A
:10570C0013469B0013449A001A447B685B689B0009
:10571C00B2FBF3F3224AA2FB03235B091901FA68DB
:10572C0013469B0013449A001A447B685B689B00E9
:10573C00B2FBF3F21A4BA3FB02035B09642000FBE0
:10574C0003F3D31A1B013233154AA2FB03235B0963
:10575C0003F0F0031944FA6813469B0013449A00B3
:10576C001A447B685B689B00B2FBF3F20C4BA3FB07
:10577C0002035B09642000FB03F3D31A1B013233D1
:10578C00074AA2FB03235B0903F00F027B681B682B
:10579C000A449A6000BF1037BD4680BD00380140F6
:1057AC001F85EB510EB46FF0004100B59CB01DABE2
:1057BC0002900690079104910848094953F8042B6C
:1057CC000591006802A9019300F092F90022029B56
:1057DC001A701CB05DF804EB03B070474800002051
:1057EC000802FFFF03460244934200D1704703F8BE
:1057FC00011BF9E7014B1868704700BF48000020F7
:10580C0070B500260C4D0D4C641BA410A64209D19A
:10581C0000F078FC00260A4D0A4C641BA410A6422A
:10582C0005D170BD55F8043B98470136EEE755F8A5
:10583C00043B98470136F2E768620008686200088A
:10584C00686200086C6200087047704738B50546FE
:10585C00002940D051F8043C0C1F002BB8BFE418B1
:10586C0000F0DEF81C4A136833B9636014602846F4
:10587C00BDE8384000F0DAB8A34208D920682118F6
:10588C008B4201BF19685B6809182160EDE71A4665
:10589C005B680BB1A342FAD911685018A0420BD126
:1058AC0020680144501883421160E0D118685B688D
:1058BC00084410605360DAE702D90C232B60D6E75A
:1058CC00206821188B4201BF19685B680918216098
:1058DC0063605460CBE738BD1004002070B50F4EE8
:1058EC000C463168054611B900F0AAFB3060214620
:1058FC00284600F0A5FB431C03D14FF0FF34204693
:10590C0070BDC41C24F00304A042F8D0211A284610
:10591C0000F096FB0130F2D1EFE700BF0C04002041
:10592C002DE9F843CD1C25F0030508350C2D38BFA7
:10593C000C25002D064601DBA94204D90C2333604B
:10594C000020BDE8F883DFF8D48000F069F8D8F8BF
:10595C0000301C4644BB29463046FFF7BFFF431CB2
:10596C00044658D1D8F800402746002F43D1002CCC
:10597C004BD023683946304604EB030900F060FB3A
:10598C00814542D1216830466D1A2946FFF7A6FFA2
:10599C0001303AD023682B442360D8F800305A6881
:1059AC0062BBC8F800700FE02268521B20D40B2A8F
:1059BC0017D96119A342256018BF5960636808BFE5
:1059CC00C8F8001062514B60304600F02FF804F11B
:1059DC000B00231D20F00700C21A1CBF1B1AA3507A
:1059EC00AFE76268A3420CBFC8F800205A60EBE72F
:1059FC0023466468AEE73C467F68B6E71A465B68A8
:105A0C00A342FBD100235360DEE70C233046336006
:105A1C0000F00CF894E70560D6E700BF10040020F6
:105A2C000148FFF711BF00BF080400200148FFF731
:105A3C000CBF00BF080400202DE9F0471F468E68FC
:105A4C008246BE420C4690460B682DD8B1F90C200C
:105A5C0012F4906F26D06569096905EB4505A3EB37
:105A6C00010905EBD5757B1C4B446D109D4238BF6D
:105A7C001D46530527D52946FFF752FF064660B34E
:105A8C004A46216900F0FAFAA38923F4906343F0A3
:105A9C008003A38126614E4426603E466561A5EBDA
:105AAC000905A560BE4200D93E46324641462068F3
:105ABC0000F0ACFA0020A3689B1BA360236833445E
:105ACC002360BDE8F0872A4600F0E6FA0646002877
